:03000000020026D5
:0C002600787FE4F6D8FD75813C02006D87
:0A025900011800052A525332333217
:1001F70012016EF538900001120187F5399000025F
:10020700120187F53A900003120187F53B9000042D
:0C021700120187F53C75230185389922FF
:10000300D3EF9400EE9400400DE4FD0DBD1BFCEF17
:060013001F70ED1E80EAE3
:0100190022C4
:0C024C00150815081508150815081508F8
:010258002283
:1001B400E4FF75220220A007AE220522EE70F6129B
:1001C400024C12024C12024CE4F52730A0037527AE
:1001D4000175220230A007AE220522EE70F6E52258
:1001E4006401600EE53225E0F532E52742320FBFA7
:0201F40008C041
:0101F60022E6
:1000B200C2A07FB47E00120003D2A012024C120230
:1000C2004C12024C12024CD2A020A05675220220E1
:1000D200A007AF220522EF70F675220230A007AF0B
:1000E200220522EF70F61201B485322F1201B48577
:1000F20032301201B485321C1201B485321D120154
:10010200B4853226D2A0E51C251D252F2530F527E2
:10011200B5260F852F28853029851C19851D1A853E
:030122002624226E
:10012500758920758DFD758BFDD28E759850D2AC75
:10013500D2AFC299C2987B007A00792A1201F77F63
:10014500017E001200031200B285282A85292B851D
:10015500192C851A2D85242EE51B60EAE4F51BFB79
:090165007A00792A1201F780DD0D
:03002300020223B3
:10022300C0E0C0D075D010309912C299E52364059F
:10023300600A74382523F8E6F59905233098057587
:090243001B01C298D0D0D0E032BA
:10003200020125E493A3F8E493A34003F68001F2BE
:1000420008DFF48029E493A3F85407240CC8C333CF
:10005200C4540F4420C8834004F456800146F6DF9E
:10006200E4800B0102040810204080900259E47ED3
:10007200019360BCA3FF543F30E509541FFEE49393
:10008200A360010ECF54C025E060A840B8E493A35A
:10009200FAE493A3F8E493A3C8C582C8CAC583CA85
:1000A200F0A3C8C582C8CAC583CADFE9DEE780BE3D
:01026300009A
:10016E00BB010689828A83E0225002E722BBFE028F
:09017E00E32289828A83E49322C2
:10018700BB010CE58229F582E5833AF583E022502D
:1001970006E92582F8E622BBFE06E92582F8E22277
:0D01A700E58229F582E5833AF583E4932291
:00000001FF
